:100000000C94E0090C94270A0C94270A0C94270AF4
:100010000C94270A0C94270A0C94270A0C94270A9C
:100020000C94270A0C94270A0C94B42E0C94832F5A
:100030000C943A290C94270A0C94270A0C94270A4A
:100040000C94270A0C94270A0C94270A0C94270A6C
:100050000C94270A0C9493290C94270A0C94270AD1
:100060000C94270A0C94270A0C94270A0C94270A4C
:100070000C94270A0C94270A0C94270A0C94270A3C
:100080000C94270A0C94270A0C94270A0C94270A2C
:100090000C94270A0C94270A0C94270A0C94270A1C
:1000A0000C94270A0C94270A0C94270A451345132D
:1000B00077137713C413E213D314D314FB1363140D
:1000C0007414741473157315851585157C158515B1
:1000D000851585157315731581158515851581157C
:1000E0002E233123432354235C236723AC23AC23E7
:1000F000AC23AC23AC236A236D2371237E238B2393
:100100008E2392239F23F02F17300F3117300F319A
:10011000633086300F31DD30EC3001048E966E771F
:100120003EFE7E5F1DB8F2664EFF5D19B0C20469E7
:10013000542AD62EBFDD19B0C3E529B1E023A5A905
:10014000B1C10082674C1A978D795120C7068E7C09
:100150007C7A764FFD5930E2460E9EBEDF1D9991A6
:10016000A0A5A1A9D022C6EF5C1B958990A2A7CC1F
:10017000FB5528B3E44AF76C3BF46A562EDE1F9D0C
:10018000B8D3058892A6CE1EBEDF1D99B0E246EF19
:100190005C07115D980B9D9497EE4E45336B44C7F9
:1001A00029562730C6A7D5F256DFB43862CBA0B6A1
:1001B000E30F84062405656F7689B577412782664B
:1001C0006582CCD5E620D52717C5F803237C5F646C
:1001D000A51DC1D636CB4CD4DB66D78BB1997E6FCB
:1001E0004C364006D6EBD7A2E4F495515A5496D536
:1001F0005344D78CE0B94068D218E9DD9A2392487D
:10020000EE7F43AFEA7738848C0A72AF69F8DDF18C
:100210002483A3F84ABFF59413DBBBD8B4B3A0FB87
:100220004550603059123171A2D313E7FAE7CE0F6F
:1002300063150B6B94BB378326059DFB4692FC0A26
:1002400015D10D7392D68C1B8CB8558ACEBDFE8EFF
:10025000FCED0912839182513123FBB40C76AD7C05
:10026000D9B44BB26714099C7F0C18BA3BD68E14D4
:100270002AE41B529F2B7DE1FB6A3302FAAC5AF24F
:100280003E887EAED1F378E805D1E3DC21F6E19A31
:10029000BD170ED9469B8803EAF666BE0E1B504971
:1002A000964097F1F1E480A66EE87734BF29404488
:1002B000C2FF4E98D39CA3322B76510409E7A9D1F3
:1002C000A632B12353E247ABD6F5695C3E5FFAAE86
:1002D0004520E5D244FF39326DFD27575CFDF0DE45
:1002E000C1B599E5F51C770175C56D5892F2B24715
:1002F000000126967A30FFB7F0EF77C18A5DDCC047
:10030000D129301E77387A94F1B87A7EEFA4D1AC37
:10031000314AF25D643DB2E2F00899FC70EE24A728
:100320007EEE1E20697D44BF8742DF883B0CDA42A7
:10033000C904F94550FC838F116A72BC9995F0ACE1
:100340003DA73BCD1CE2887937115F3989950A16A4
:10035000847AF68AA428E4ED83803BB123A50310B8
:10036000F466EABB0C0FC5EC6C69C5D324ABD42A88
:10037000B799887608A0A8957CD8386DCD590251D8
:100380004BF1B52B50E3B6BDD072CF9EFD6EBB4492
:10039000C8248A77188A1306EF977DFA81F031E630
:1003A000FA77ED3106315B548A9F3068DBE240F822
:1003B0004E73FAAB748B105813DCD2E678D1322E20
:1003C0008A9F2C58064827C5A95E814789462191F6
:1003D0000370A43E889CDA330ACEBC8B8ECF9FD3A9
:1003E000718043CF6BA95183763082C56A853911FC
:1003F000501A82DC1E1CD57DA9719933471997B319
:100400005AB1DFEDA4F2E62684A2289A9EDFA66AFE
:10041000F4D6FC2E5B9D1A2A2768FBC183214B90E2
:10042000E036DD5B314255A013F7D08953719957FF
:100430000929C5F321F8372F40F3D4AF1608360247
:10044000FC77C58B049056B9C9679A99E800D386A2
:10045000FF972D08E9B7B391BCDF45C6ED0F8C4C73
:100460001EE65B6E3830E4AAE395DEB9E49AF5B295
:10047000559A879BF66AB2F2779A31F47A31D11D98
:1004800004C07C32A29E9AF562F8278DBF51FFD33B
:10049000DF64373F2A6F763A7D77069E777F5EEB83
:1004A0003251F916669A09F3B008A470964630FFE7
:1004B000DA4FE91BED8DF8741F3192B3731736DBF9
:1004C0009130D688556B3477877AE7EE06C61C8C58
:1004D000190C4846235E9C075CBFB47ED64F749CC3
:1004E000E2C5508BC58B159060625729D01343A18C
:1004F0008088910044C74D1986CC2F2A755AFCEB91
:10050000972A70E378D891B04F9907A395EA2421F0
:10051000D5DE512093270A3073A8FF8A97E9A76A8E
:100520008E0DE8F0DFECEAB46C1D392A622D3D5ADD
:100530008B65F890052E7E912C78EF8E7AC12FACCA
:1005400078EEAF2845064C26AF3BA2DBA39306B559
:100550003CA5D8EE8FAF25CC3F856848A962CC97E3
:100560008F7F2AEAE0150AAD6207BD45F841D8360B
:10057000CB4CDB6EE63AE7DA15E9291E1210A0141F
:100580002C0E3DF4BF394192750B257BA3CE399CCF
:100590001564C8FA3DEF7327FE262ECEDA6EFD7184
:1005A0008EDDFE76EEDC125C02C53A4E4E4FBFCABF
:1005B0004015C76E8D41F110E04F7E977F1CAE470E
:1005C0008E6BB12531B073C71B9779F980D3662242
:1005D0003007741EE4D08021D6EE6B6C4FBFF5B7A8
:1005E000D909872FA914BE27D9725001D41373A635
:1005F000A751027525E1B345347DA88EEBF316496A
:10060000CB4F8CA1B9368539755D0800AEEBF6EAA3
:10061000D7133A215A5F3084522695C914F25755A0
:100620006BB110C2E1BD3B51C0B7554C711226C72A
:100630000DF951A43802057FB8F1724BBF718914CE
:10064000F37738D97124F30011A1D8D4692708377A
:1006500035C9119D901C0EE71CFF2D1EE892E11874
:1006600010957CE080F4964321F975216438DD9F74
:100670001E9516DA561D4F9A53B2E2E418CB6B1A48
:1006800065EB56C63BE5FED8263F3A84597266A212
:10069000F375FFFB60B322AD3F2D6BF9EBEA057CF0
:1006A000D88F6D2C989E2B93F15E46F08749297365
:1006B00068D77FF9F0E57DDB1D7519F3C4589B17EA
:1006C00088A892E0BEBD8B1D8D9F5676ADAF29E206
:1006D000D9D552F6B55635573AC8E156431994D391
:1006E000049B6D35D80B5F4D198EECFA64910A723C
:1006F000202BBC1A4AFE8BFDBBED1B23EAAD728298
:10070000A1299971BDF095C103DD7BC2B23C28548B
:10071000D368A472C86696E0D1D87FF8D1262BF7AB
:10072000ADBA55CA15B932C3E588978E5CFB9225E0
:100730008BBFA245557AA76F8B575BCF0ECB1DFBA6
:10074000208277A88CCC16CE1DFADECC0B62FECCB4
:10075000E1B7F0C381647340A0C24D891175335570
:10076000338DE84AFDEA6E300BD7312CDE47E3BF0C
:10077000F85542E27F59E517EF99346991B1238E1C
:1007800020872DA8FED58AF3843AF037E409005477
:10079000EE674993E48170E3904DEFFE41B7997B9A
:1007A000C183BA62126F7DDE6BAFDA16F95551EE76
:1007B000A60C2B02A3FD8DFB3017E46FDF3671C44E
:1007C000CA872548B047ECEAB4BFA54D9B9F02936A
:1007D000C4E3E4E8422D6881150AEB845BD6A87473
:1007E000FB7D1DCB2CDA462A7662CEBC5C9E8BE765
:1007F000CFBE78F57CEBB33A9CAA6FCC72D159F29C
:100800001123D63F48D1B7CEB0BFCBEA80DE57D454
:100810005E972F75D1508E802C6679BF724BBD8A42
:10082000816CD3E101DCD21526C536DA2C1AC0273B
:1008300094EDB79B850B5E8097C5EC4FEC885D50BF
:10084000073547DC0B3B3DDD60AFA85D81382425D3
:100850005D5C15D1DEB3ABEC0569EF83ED5754B8A1
:10086000646411163269DA9F2D7F36BB445A34E82E
:100870007FBF03EB007F59682279CF736C2C29A7C7
:10088000A15F38A11DF02053E01A6314587110AA1B
:10089000080C3E161A6022827FBAA443A0D0AC1B7B
:1008A000D56B64B51493319E5350D05766EE5A4FB2
:1008B000FB032A695876F183F74EBA8C4206605DD5
:1008C0006DCE6088AEA4C3F103A54B98A1FF67E18C
:1008D000ACA2B862D76FA031B4D277AF211006C6F0
:1008E0009AFF1D09170E5FF1AA54344B458A87639E
:1008F000A6DCF9243067C6B2D6613369EE50615781
:1009000028E77EEEEC3A5A734EA88DE418EAEC41E3
:1009100064C8E2E866B62DB6FB6A6C16B3DD4643E2
:10092000B973006A71ED4E9D251AC33C4A9515991D
:1009300035811402D6989BECD8233B8429AF0C99BF
:1009400083A69A344FFAE8D03C4BD0FBB668B89EE9
:100950008FCDF7602D7A22E57DAB651B95A7A87F2B
:10096000B677477B5F8B1272D0D491EFDE19503C83
:10097000A78BC4A9B323CB76E681F0C1048FA3B8BB
:10098000545B97AC19FF3F55272FE01D429B57FC46
:100990004B4E0FCE98A9435703BDE7C894DF6E3680
:1009A0007332B4EF2E857A6EFC6C18827535900721
:1009B000F3E49F3EDC68F3B5F31980920699A2E850
:1009C0006FFF2E7FAE42A45FFBD40E812BC304FFCA
:1009D0002BB3744E365B9C1500C6472BE88B3DF15C
:1009E0009C039A587F9B9CBF854979352E567B4145
:1009F0001439478326AA078998111B86E7737AD88A
:100A00007D786153E979F5368D449284F913505815
:100A10003BA46A3665498E3C0EF16FD284C47E8E4B
:100A20003F39AE7C84F163378E3CCC3E448145F146
:100A30004BB9ED6B365DBB20601A0FA3AA55773A10
:100A4000A9AE374DBAB8866BBC0850F6CCA4BD1D14
:100A50004072A586FAE210AE3D584B97F34374A955
:100A60009EEB21B701A4869397EE2F4F3B86A141C1
:100A70006F412690785C7F30384B3FAAECED5C6F7D
:100A80000EAD4387FD9335E601EF412690999EFB1D
:100A9000195BADD2918AE046AF65FA4F84C1A12DB2
:100AA000CF458BD38550557CF96788D44EE9D76BF9
:100AB0006154A1A4A6A2C2BF309C409F5FD7692BFE
:100AC00024825ED9D6A712541AF7559F7650A9955D
:100AD00084E66B6DB59654D6CDB3A19B46A7944DD5
:100AE000C494B498E3E1E234D533160754CDB77714
:100AF00053DB4F4D469DE9D49C8A36B6B838266CF8
:100B00000EFF9C1B438B80CCB93DDAC7F18AF26D96
:100B1000B8D7742F7E1EB7D34AB4ACFC79486CBCEE
:100B200096B69446572DB0A3FC1EB95260852D4150
:100B3000D043011E1CD57DFCF3960DC7CB2A299A04
:100B400093DD882D375DAAFB4968A09C50867F689D
:100B50005657F9791839D4E001843361CAA5D2D641
:100B6000E4C98A4A23444EBCF0DC24A1A0C4E207B5
:100B70003C10C4B5254B6563F480E7CF61B1718249
:100B800021872CF59100320CECA9B59A7485E336D7
:100B90008F764F9C6DCEBCAD0A4BED7604CBC3B9BE
:100BA000339E019396697DC5A245799B045C8409B7
:100BB000ED8843C7AB931426A140B5CE4EBF2A4261
:100BC000853E2C3B54E8121F0E9759B22789FAF242
:100BD000DF8E6859DC06BCB6850D0622ECB1CBE58C
:100BE00004E63DB3B04173083F3C588663EB50EEDA
:100BF0001D2C3774A9D318A3476E9354AD0A5DB862
:100C00002A555D78F6EEBE8E3C7669B940C234EC6A
:100C10002AB9ED7E20E48D0038C7E68F44A886CE41
:100C2000EB2AE990F14CDF32FB731B6D921E95FEAF
:100C3000B4DB65DF4D23548948BF4A2E70D6D76296
:100C4000B43329B13A334C236DA676A5216348E627
:100C5000905DED90950B7A84BEB80D5E630C6226B4
:100C60004C145AB3AC23A474A76F3330056001420F
:100C7000A028B7EE1938F164808243E141271F1F95
:100C800090547AD5232ED13DCB28BA587FDC7C9165
:100C900024E92851836EC5562142EDA05622A14079
:100CA000806BA8F794CA136B0C39D9FDE9F36FA6D2
:100CB0009EFC708AB3BC593C1E1D6CF97CAFF98850
:100CC0007195EB5700BD9F8C4FE12483C522EAFD4F
:100CD000D30CE217187C6A4CDE77B4539B4C81CD61
:100CE0002360AA0E25739C02793230DF74DF7519F8
:100CF000F4A5145CF77AA8A591847C6003063BCD2B
:100D000050B6279CFEB1DDCCD3B05924B2CAE21C48
:100D100081229D078F8EB9BE4EFAFC3965BABF9D00
:100D200012375E977EF389F55DF5E3098C62B52095
:100D30009D0C538A681BD28F75175DD4E5DA7562F6
:100D400019146A262DEBF8AF37F06CA455B1BCE24C
:100D500033C09ACAB011494F689B3B6B3CCC13F629
:100D6000C785616842AEBBDDCD4516291DEADBC8EB
:100D700003943CEE4F8211C3EC28BD970599DED752
:100D8000BB5E221FD4EB64D992D985B76A056AE4A9
:100D90002441F1CDF0D83FF89E0ECD0B7A706B5AFE
:100DA000750A6A3388EC17750870102F24CFC4E9D0
:100DB00042006194CA1F3A7606FAD24881F0776001
:100DC0000345D961F4A46F3DD930C3046B542AB7ED
:100DD000EC3BF44BF5685226CEFF5D1991A0A3A51C
:100DE000A9B1E023C40A774DF95120A3A5A9B1C147
:100DF0000082868E7F5D1991A0A3C4EB540B7568A9
:100E000052078C9A978D79706246EF5C1B958971B9
:100E100041E121A1A1A1C002674C1AB6CFFD7853D0
:100E200024ABB5C9F16023A5C812876D5813858816
:100E300092876D5832C70C9A97ACDA36EE5E3EDF79
:100E40001DB8F2662FBDF87247ED5813858892875A
:100E50008C7B550990A2C6EF3DF85324ABD42AB73A
:100E6000EC5A36EE5E3EDF3CFA764FFD5930E246F4
:100E7000EF3DF853056931C10082868E7F5D19B060
:100E8000E227CCFB744B148B948B756833C50892A6
:100E9000878C9AB6CF1CBAD70D98B2E62FDC1B957B
:100EA00089716023C40A968F9CBAF66E3FFC5B156D
:100EB000A8D226AFBDF872662FDC1BB4CB148B947E
:100EC000AAB7CDF951018082866F3DD930E227CC97
:100ED000FB744B14AAB7CDF97043046B35C9F160AC
:100EE00023A5C8F3450892876D5832E62FBDF872E6
:100EF000664E1EBEFE7E7E7E5F1D9991A0A3C40A33
:100F0000774D1893A4ABD40B754910A2C6EF3DF8EA
:100F10005324ABB5E833E44A16AEDE1FBCDB15A89C
:100F2000B3C5087345E931C1E121A1A1A1C0028681
:100F30006F5C3AD70D9893A4CA16AEDE1F9D99B088
:100F4000E246EF3DF872470C9AB6CFFD5911A0A3C7
:100F5000A5C8F3450892876D39F043048A96AEDE42
:100F60003EDF1D9991A0C2066F3DF872470C9A971B
:100F70008D989385887345E931E023A5A9D0038432
:100F80008A96AEDE1FBCDB15A8D226CEFF5D199176
:100F9000818082672DD813A4ABD40B94AAB7CDF966
:100FA0005120A3A5C8F345E95022C6EF5C3AD70DFE
:100FB0009893858873644AF74DF95120A3C40A9623
:100FC000AEDE3EFE7E7E7E5F3CFA764FFD78726638
:100FD0002FBDD930C3E54812878C7B5528D2078CAA
:100FE0009A97ACDA178D795120A3C4EB540B948BEC
:100FF00094AAD62EBFFC5B15A8D226AFDC1BB4EAA0
:1010000037EC3BF46A37CD1893856931C1E140E391
:1010100025C812878C9AB6CFFD5911A0C2068E7FC3
:101020005D38F2470C7B746A37EC5A36EE3FFC7A37
:10103000764F1C9B95897141006344EB542AD60F6F
:101040009CBAD70D9893856931C10082868E9EBE69
:10105000DF3CFA572CDA36EE3FFC5B158971410014
:1010600082868E7F5D38F247ED5813A4CAF74DF99A
:101070005101806344EB542AD62EBFDD1991A0A301
:10108000A5A9B1E042068E7F5D1991A0A3C40A967E
:101090008F7D7872470C7B746A562EDE1FBCFA5720
:1010A0000D7951016121A1C0E325A9B1C1E140023F
:1010B000674C1A978D9893A4ABD42AD60F9C9BB4F7
:1010C000CB14AAB7CDF95120A3C4EB35C9F16042C6
:1010D000068E7F7C7A766E3FFC7A766E5E3EFE7E72
:1010E0005F3CDB15897141E121C0E344EB542AB731
:1010F000CDF9706227ADD832C70C7B744B14AAB7F8
:10110000EC3BD528D2076D39D120C2E74C1A978D18
:1011100098B2C70C5928F39BF700805FF400F600E3
:10112000F500F800010001000100010001000100CC
:1011300001000100010001000100010001000100A7
:101140000100010001000100010001000100010097
:101150000100010001000100010001000100010087
:101160000100010001000100010001000100010077
:10117000010001000100010000000000000000006B
:101180002A2B2800000000000000000000000000E2
:1011900000000029000000002C1E342021222434ED
:1011A0002627252E362D3738271E1F2021222324BF
:1011B00025263333362E37381F0405060708090A5B
:1011C0000B0C0D0E0F101112131415161718191AF7
:1011D0001B1C1D2F3130232D350405060708090A75
:1011E0000B0C0D0E0F101112131415161718191AD7
:1011F0001B1C1D2F3130354C00000000000000008A
:1012000000000000000000000000000000000000DE
:101210000000000000000000000000007E0F00D46D
:10122000FFFFFFC70000007820035400680075002E
:101230006D006200200054007200610063006B00CA
:10124000620061006C006C000000260350006C001E
:101250006F006F0070007900200043006F00720083
:1012600070006F0072006100740069006F006E0012
:1012700000000403090409025B00030100A0320915
:1012800004000001030101000921110100012240B5
:1012900000070581030800010904010002030000A2
:1012A000000921110100012222000705820320000C
:1012B00001070503032000010904020001030000E7
:1012C00000092111010001227B0007058403200091
:1012D0000112010002000000084350465C010001B9
:1012E0000200010660FF0961A1010962150026FFE5
:1012F000009520750881020963150026FF009520DE
:1013000075089102C005010902A10185020901A128
:1013100000050919012908150025019508750181A5
:10132000020501093009311581257F950275088173
:101330000609381581257F950175088106050C0A77
:1013400038021581257F950175088106C0C0050109
:101350000980A101850319012AB700150126B700EC
:10136000950175108100C0050C0901A101850419C2
:10137000012AA002150126A002950175108100C066
:1013800005010906A101050719E029E71500250156
:1013900095087501810295017508810105071900FD
:1013A00029FF150026FF009506750881000508191C
:1013B000012905950575019102950175039101C0FB
:1013C00011241FBECFEFDAE0DEBFCDBF04B603FEAF
:1013D00027C08091650390916603A0916703B09147
:1013E00068038730904BA740B04BD1F4109265034F
:1013F00010926603109267031092680314BE84B7BC
:10140000877F84BF0FB6F894A895809160008861AB
:1014100080936000109260000FBEE0E0F8E3099551
:1014200011E0A0E0B1E0E8EDF5E602C005900D9214
:10143000AE39B107D9F723E0AEE9B1E001C01D92A2
:10144000A536B207E1F70E942C1F0C94EA320C94E7
:10145000000020E030E043E060E080E30E94752778
:1014600092E09A95F1F700C0089582E08A95F1F72D
:1014700000C00C941E28CF93DF93C82FD62F803541
:1014800011F01092A0010E94290A8C2F80680E94FE
:10149000EE278D2F0E94EE27EC0185E38A95F1F768
:1014A000000087EC90E00197F1F700C000000E9477
:1014B0001E28CE01DF91CF910895CF93C82F0E94AF
:1014C000290A8C2F8F770E94EE270E940628C82FAA
:1014D00082E08A95F1F700C082E38A95F1F700C0B7
:1014E0000E941E288C2FCF910895CF93DF93EC019B
:1014F0000E94290ACE0164E670E00E946D326150BC
:1015000071096837710510F067E770E08FE00E949D
:101510003B0ADF91CF910C941E28CF93DF936DE1AE
:1015200083E10E943B0A8FE19EE40197F1F700C03E
:10153000000068E183E10E943B0A0E94290A82EED2
:101540000E94EE2798E29A95F1F7CAE1D1E081E195
:10155000C831D80749F0FE0184910E94EE27F8E2D5
:10156000FA95F1F72196F3CFEFE8F1E03197F1F733
:1015700000C000008AE20E945D0A60E080E10E94F3
:101580003B0A0E941E288FE19EE40197F1F700C0FC
:101590000000DF91CF910895CF93DF9380E00E9408
:1015A0005D0AD82F8FE30E945D0AC82F8AE20E944D
:1015B0005D0AD23441F4CD3B31F491E0843009F03E
:1015C00090E0892F01C080E08170DF91CF91089574
:1015D000209A0E946D271092A0010E941E280E944E
:1015E000290A0E941E2866EB8BE30E943B0A2FEF1C
:1015F00082E597E0215080409040E1F700C0000074
:101600000E94290A2AE62A95F1F700C00E94350AAD
:101610008AE68A95F1F700C06AE58AE30E943B0AF0
:101620009FE728E381E0915020408040E1F700C02F
:10163000000082E00E945D0A83E00E945D0A84E06F
:101640000E945D0A85E00E945D0A86E00E945D0AB4
:101650000E948D0A0E94350A8FE19EE40197F1F7FE
:1016600000C0000080E496E00E94750A8FEC97E0CD
:101670000197F1F700C0000060E080E10E943B0AA2
:1016800060E081E10E943B0A0E94CC0A28980895FC
:101690007F928F929F92AF92BF92CF92DF92EF9202
:1016A000FF920F931F93CF93DF93EC018091A001E2
:1016B000811107C060E080E50E943B0A81E08093D1
:1016C000A0010E94290A80E50E94EE278DE58A95F7
:1016D000F1F700000E940628D82E80E00E94EE2735
:1016E0000E9406288C010E940628982E0E94062837
:1016F0007C010E940628C82E0E941E287D2C771C83
:101700007724771C88248394D3FC812CA92C092C62
:10171000000CBB08BA2CAA240A291B29AA24BB2422
:10172000A01AB10A0C2D0C2C000C110B102F002745
:10173000E02AF12A002711270E191F090E941E28EE
:101740008D2D877011F01092A001D88279828A8243
:10175000BC82AB829D821F830E83C886CE01DF913F
:10176000CF911F910F91FF90EF90DF90CF90BF909E
:10177000AF909F908F907F9008951092FD021092ED
:1017800075021092B9028FEF93E09093BB028093A1
:10179000BA02109200031092FF021092BC02109243
:1017A000440310924B0310924A0310924803109284
:1017B0004703109276021092B802909346038093EA
:1017C00045031092360210923502109201031092D6
:1017D000770210920503109204031092BE02109239
:1017E000BD021092FE021092490310920303109260
:1017F000020310927902109278020895FC01208170
:1018000031812E3131052CF42F5F3F4F31832083FE
:1018100008951182108281E0FB01808308952F9248
:101820003F924F925F926F927F928F929F92AF9270
:10183000BF92CF92DF92EF92FF920F931F93CF93BD
:10184000DF9300D0CDB7DEB7FC013B012A013A831C
:101850002983DB018D919C911197E817F90714F406
:10186000ED93FC93D2018D919C9111978E179F0758
:1018700014F4ED93FC93D2012D903C90D3012D9163
:101880003C91C101821B930B8A3091050CF451C02D
:1018900063E070E00E948132620F731FE617F70762
:1018A000ACF4F8018081882369F0D401ED91FC91BA
:1018B000EE0FFF1FEC0DFD1D31822082698D7A8DA8
:1018C000C40118C081E0E981FA8132C06E177F0738
:1018D00084F5A981BA818C91882341F1D501ED91DC
:1018E000FC91EE0FFF1FEE0DFF1D318320836F89EA
:1018F000788DC5010E94FE0BF30120813181D20158
:101900008D919C91821B930B97FD019695958795E0
:10191000820F931FF30191838083D2018D939C9357
:10192000E981FA811082D8011C9203C081E0F8019C
:101930008083A98DBA8D8C91882381F0F601960160
:10194000225C3F4F80E090E041915191840F951FC0
:101950002E173F07C9F76FE170E015C0F4016081F1
:1019600071816115710599F0F60120E030E080E0A9
:1019700090E0261737073CF441915191840F951F51
:101980002F5F3F4FF6CF0E9481329B0103C0D201EF
:101990002D913C91EF89F88D8081882381F0F701AA
:1019A000A701425C5F4F80E090E061917191860FEA
:1019B000971F4E175F07C9F76FE170E015C0D5019B
:1019C0006D917C916115710599F0F70140E050E04F
:1019D00080E090E0461757073CF4A191B1918A0F3F
:1019E0009B1F4F5F5F4FF6CF0E948132FB0103C008
:1019F000D301ED91FC91C9018E1B9F0B63E070E058
:101A00000E948132CB018E0F9F1F0F900F90DF91AC
:101A1000CF911F910F91FF90EF90DF90CF90BF90EB
:101A2000AF909F908F907F906F905F904F903F907E
:101A30002F9008958F929F92AF92BF92CF92DF9294
:101A4000EF92FF920F931F9328EB32E03F932F9377
:101A500026E732E03F932F9327E4822E23E0922E55
:101A60003AE4A32E33E0B32E4FEBC42E42E0D42E43
:101A700056E0E52E53E0F52E04E413E02CEB32E0C3
:101A80004FEF52E06AEB72E00E940F0C9093030359
:101A9000809302030F900F900F900F901F910F9162
:101AA000FF90EF90DF90CF90BF90AF909F908F907E
:101AB00008958F929F92AF92BF92CF92DF92EF9252
:101AC000FF920F931F9329E433E03F932F932EEF60
:101AD00032E03F932F932DEB822E22E0922E34E0C2
:101AE000A32E33E0B32E4AE7C42E42E0D42E57E3B0
:101AF000E52E52E0F52E07E712E021E033E045E362
:101B000052E065E473E00E940F0C90937902809399
:101B100078020F900F900F900F901F910F91FF90F0
:101B2000EF90DF90CF90BF90AF909F908F900895EF
:101B30000F931F93CF93DF938C01EB01809176027B
:101B4000882321F08091B802811103C0C8010E944E
:101B50001A0D8091FE02882321F0809149038111A2
:101B600003C0CE010E94590D40910203509103031E
:101B700080917802909179022091FD02211121C07B
:101B8000041715077CF4C817D9070CF469C083E063
:101B90008093FD028091B902882309F461C01092FC
:101BA000B90238C0C817D9070CF05AC081E0809339
:101BB000FD0280917502882309F452C010927502CB
:101BC00038C02130B1F4041715073CF0C817D90705
:101BD0000CF446C01092FD0207C0C817D9070CF0DC
:101BE0003FC082E08093FD022093B90210927502FB
:101BF00037C0223009F5041715077CF0C817D9073C
:101C00007CF581E08093FD0280917502882341F18B
:101C10001092750281E090E025C0C817D90704F141
:101C200083E08093FD028091B9028823C9F010926D
:101C3000B9028FEF9FEF16C00417150734F0C817CD
:101C4000D90774F01092FD0206C0C817D90744F4F2
:101C500082E08093FD0281E0809375021092B902C8
:101C600080E090E0DF91CF911F910F910895FC01EA
:101C70006583448308950F931F93CF93DF93EC0103
:101C80008091A2019091A3010E948429843691053C
:101C900080F18091A4019091A5010E94842905976B
:101CA00040F18091A801811124C00E946C29909379
:101CB000A5018093A40184E00E944A278C0180E062
:101CC0000E944A27BC01C8010E94980D009789F024
:101CD0002C81AC01420F511D27FD5A956D81062EB6
:101CE000000C770BCE01DF91CF911F910F910C94D7
:101CF000370EDF91CF911F910F910895FC01628300
:101D000043830895CF92DF92EF92FF920F931F9338
:101D1000CF93DF93CDB7DEB729970FB6F894DEBF28
:101D20000FBECDBF8C01CE0101960E94480B8B8166
:101D3000882309F43FC08A818823E1F1EC80FD808B
:101D4000CF80D8848091A6019091A701892B31F48E
:101D50000E946C299093A7018093A601A6014038A8
:101D6000510514F04FE750E041388FEF580714F455
:101D700041E85FEF519541955109B7016038710510
:101D800014F06FE770E061388FEF780714F461E8C2
:101D90007FEFC80129960FB6F894DEBF0FBECDBF06
:101DA000DF91CF911F910F91FF90EF90DF90CF9037
:101DB0000C947E0E29960FB6F894DEBF0FBECDBFF1
:101DC000DF91CF911F910F91FF90EF90DF90CF9017
:101DD0000895EF92FF921F93CF93DF937C01EB0165
:101DE0008881813061F48981811109C00E946C2948
:101DF0009093A3018093A2018A818093A801BE01E0
:101E0000C7010E941110182F882309F452C080E8DE
:101E1000E8168FE5F80601F58A81882309F449C0A0
:101E200080914C0390E0019663E070E00E946D3277
:101E300080934C0360914C0370914D0380914E034D
:101E400090914F030E94F41AE0914C03F0E0EE0FE2
:101E5000FF1FE050FF4F29C081E8E8168FE5F80624
:101E600041F58A81882331F09091A10181E0892791
:101E70008093A1018091A101E0914C03F0E0EE0F6D
:101E8000FF1FE050FF4F882381F06081718180E067
:101E900090E00E94723120E030E040E45FE30E9475
:101EA000D8310E944331CB0102C0808191810E94D0
:101EB000750A812FDF91CF911F91FF90EF900895C8
:101EC0000F931F93CF93DF93CDB7DEB72A970FB64B
:101ED000F894DEBF0FBECDBF84988C988098889808
:101EE0008AE0EDE1F1E0DE01119601900D928A9514
:101EF000E1F7FE0131969E01255F3F4F41E050E042
:101F00008191A82FA295AF70B0E091966C919197B6
:101F10008F708A0102C0000F111F8A95E2F7C80175
:101F2000962F982B91969C93919792969C9192972D
:101F30008095892392968C932E173F0709F72A964E
:101F40000FB6F894DEBF0FBECDBFDF91CF911F91CA
:101F50000F910C948D1B0E94E80A0C94BD0BCF933B
:101F6000DF9300D000D000D0CDB7DEB70E9443226F
:101F700029833A834B835C836D837E83CE010196F4
:101F80000E943B0ECE0101960E94820E8091A1011B
:101F9000882331F08B818E838C818D831B821C8200
:101FA00049815A816B817C818D819E810E9464224E
:101FB0000E94092226960FB6F894DEBF0FBECDBF51
:101FC000DF91CF91089581E080934C0360914C03A1
:101FD00070914D0380914E0390914F030E94F41A2B
:101FE0000C94001B0E94F01A60934C0370934D03F5
:101FF00080934E0390934F03643010F00E94E30FE0
:102000000C94581EE0914C03F0E0EE0FFF1FE050DF
:10201000FF4F808191810E94750A0C948B1B81E097
:10202000089581E0089508950C9413101F93CF93A1
:10203000DF9300D000D01F92CDB7DEB749835A831B
:102040006B833091A90189819A81311114C0662373
:1020500059F0222349F00E946B16182F682F8981AE
:102060009A810E94121603C00E943E16182F6981A1
:102070007A81812F04C00E946B1669817A810F904A
:102080000F900F900F900F90DF91CF911F910C94B4
:102090006724FC01262F40815181628173818481F4
:1020A0000C94161081E00895CF93DF93EC0160E06B
:1020B0000E944910BE01DF91CF910C941410E1E011
:1020C000F0E0DF0102C0AA0FBB1F6A95E2F7BD0175
:1020D000DF0102C0AA0FBB1F4A95E2F7AD01462BF4
:1020E00001C0EE0F2A95EAF7942F9823491302C0F6
:1020F0008E2B0895E0958E230895242F462F682F68
:102100008091AD010E945F100C94CF150E94321E89
:102110000E94D0110C94F20F0C94561E08950E9448
:1021200061150E948E102FE78AE196E021508040D1
:102130009040E1F700C000000C94B9290F931F9361
:10214000CF93DF938C0161E00E944910EC01B8014C
:102150000E94E022882309F444C0B801CE010E9405
:10216000E90E8823F1F1B801CE010E949C25882355
:10217000C1F1B801CE010E94EE25882391F1B8018A
:10218000CE010E941927882361F1F80182818823FA
:1021900009F1CA358DE5D807C1F050F4C115FCE549
:1021A000DF0781F0CE3DDC45A9F40E94631B19C016
:1021B000CB35EDE5DE0761F0CC35DD4559F40E9405
:1021C000F81908C00E948F100CC00E94011A02C0AA
:1021D0000E94041AC801DF91CF911F910F910C94B6
:1021E0000F1080E0DF91CF911F910F910895DF9242
:1021F000EF92FF920F931F93CF93DF93E82FF0E0BE
:10220000E858FE4ED490282F26952695269530E046
:10221000F901E85EFD4E0491877010E0082E02C0BF
:10222000159507950A94E2F701701127F901E85F07
:10223000FD4EE490F12C082E02C0F594E7940A9428
:10224000E2F791E0E922FF24F901E850FE4EC49143
:10225000D0E002C0D595C7958A95E2F7C170DD2719
:102260000115110519F081EE0E945612E114F104D6
:1022700019F086EE0E9456128D2D0E94F712EF285B
:1022800019F086EE0E94AC12012B19F081EE0E942B
:10229000AC12CD2B51F08CE2DF91CF911F910F91B9
:1022A000FF90EF90DF900C94F712DF91CF911F9188
:1022B0000F91FF90EF90DF900895EF92FF920F93B0
:1022C0001F93CF93DF93EC01162F0AE088818823B8
:1022D00009F455C0813009F043C08981813041F44F
:1022E0007E0182E0E80EF11C8A810E94F71209C08B
:1022F000823049F47E01E2E0EE0EF11C8A810E94F8
:102300005612E7012FC0833041F47E01F2E0EF0E58
:10231000F11C8A810E94AC12F4CF843011F0219616
:1023200021C02A81229680E090E030E020533109DC
:102330002A30310558F4089FA001099F500D11243F
:10234000C901840F951F21962881EFCF009751F086
:10235000EFECF7E03197F1F700C000000197F6CFFE
:102360000E94F7102196812F882309F4AFCFEFEC5C
:10237000F7E03197F1F700C000008150F5CFDF9111
:10238000CF911F910F91FF90EF90089560E00C9412
:102390005D1108950C94C91181E008950C94CC113D
:1023A0000895CF93C82F0E94CA118C2F0E94CE117E
:1023B000CF910895CF93DF93CDB7DEB72B970FB6AC
:1023C000F894DEBF0FBECDBF4F83588769877A87E9
:1023D0008B8761110E94271A9E012F5F3F4F86E075
:1023E000F90111928A95E9F785E0FE013796D90146
:1023F00001900D928A95E1F789819A814C815D81E6
:10240000452B31F09F3F31F491E08F3F19F403C029
:1024100091E001C090E090FF09C049815A816B8131
:102420007C818D819E810E94271905C0C9010E946F
:1024300052108111F2CF2B960FB6F894DEBF0FBE6B
:10244000CDBFDF91CF910895FC01808191810E94E1
:10245000981608950F931F93CF93DF9300D000D069
:1024600000D0CDB7DEB7082F162F0E944322298354
:102470004B835C836D837E83002319F0512F532B94
:1024800003C01095512F532349816B817C818D812D
:102490009E810E94642226960FB6F894DEBF0FBE7E
:1024A000CDBFDF91CF911F910F910895CF938823D6
:1024B00009F450C0C82F8CEF8C0F813AD0F46C2FE8
:1024C00080910601909107010E94A828882349F075
:1024D0006C2F80910601909107010E94E0280E94D4
:1024E0004C1A6C2F80910601909107010E94DE2802
:1024F0000CC080E28C0F883058F4C77081E001C0B6
:10250000880FCA95EAF70E940A1ACF910C944C1AC8
:10251000EBE5EC0FE33040F4F0E0EB5AFE4F808146
:1025200090E0CF910C947028E8E5EC0FE73150F47F
:10253000F0E0EE0FFF1FE95DFE4F80819181CF91AA
:102540000C948628C03F30F08C2F0E94B91FCF9189
:102550000C948B20CF910895882389F19CEF980FDC
:10256000913A40F4682F80910601909107010E94F2
:10257000E0280DC090E2980F983058F4877091E0F1
:1025800001C0990F8A95EAF7892F0E94101A0C94BE
:102590004C1A9BE5980F933020F480E090E00C9467
:1025A000702898E5980F973120F480E090E00C9423
:1025B0008628803F20F00E9414200C948B200895E0
:1025C0001F93CF93DF93182FEB010E945612209791
:1025D00041F08FEC97E00197F1F700C000002197E0
:1025E000F6CF812FDF91CF911F910C94AC128933DC
:1025F00019F060E070E002C060E570E00C94E01259
:10260000882321F00E940A1A0C944C1A08958823FA
:1026100021F00E94101A0C944C1A0895CF92DF9268
:10262000EF92FF920F931F93CF93DF937C01062FBE
:10263000C72FFC01D281158112951F700E94DF19EE
:10264000882399F0DD2389F08C2F807F803421F05E
:1026500080E2800F883048F082E00E949C1A0E943D
:10266000DF1991E0D82ED92601C0D12CCC2EC294EE
:102670008FE0C8228C2D90E08C30910508F093C13A
:10268000FC01EA5AFF4F0C9495328C2F807FCF705B
:10269000882311F0C295C07FDD2399F0CC2309F483
:1026A0006EC180E2800F883010F0011104C08C2FC1
:1026B0000E940A1A03C08C2F0E941A1A0E944C1AF8
:1026C0005EC1802F0E94AC12CC2309F46CC180E261
:1026D000800F883010F0011104C08C2F0E94101A56
:1026E00003C08C2F0E94201A0E944C1A5CC18C2FB0
:1026F000807FCF70803211F0C295C07F002319F027
:102700000130C9F022C0DD2371F0112341F01130F6
:1027100031F40E942D1A8C2B0E94351A44C10E945C
:102720002D1A8C2B1DC0112319F0113009F43BC157
:102730000E94421A25C0DD2321F0163008F033C173
:102740000EC0153008F02FC11BC0DD2361F011232E
:1027500031F0F701858180FF12C18F7085838C2F46
:102760000E94001320C1112359F0093309F018C148
:10277000FFEF23EF81E0F15020408040E1F70EC1F0
:102780008C2F0E9407130FC18C2F8695869583701E
:1027900019F0813061F007C1DD2321F0802F9C2FDB
:1027A000937002C080E090E00E94702804C1DD2395
:1027B00021F0802F9C2F937002C080E090E00E9457
:1027C0008628F9C0802FDD2319F00E94B91F02C0AE
:1027D0000E9414208CE0800F853050F461E070E09E
:1027E00001C0660F8A95EAF78D2F0E942A12E3C076
:1027F0000E948B20E0C08C2F837079F5D111D7C057
:10280000402F429546954770440F440F202F2F705C
:10281000042E01C0220F0A94EAF704FF08C08FE0DB
:1028200090E001C0880F4A95EAF7809501C080E0EA
:10283000C695C695C370822BC23049F058F4C1309A
:1028400019F00E94C315B3C00E94BE15B0C00E940B
:10285000C815ADC00E94BC15AAC0DD2319F08C2F8D
:10286000817001C08695882309F4A1C0402F42954C
:1028700046954770440F440F202F2F70042E01C03F
:10288000220F0A94EAF704FF08C08FE090E001C02D
:10289000880F4A95EAF7809501C080E0C695C695F5
:1028A000C370822BC23049F058F4C13019F00E9435
:1028B00007167DC00E9402167AC00E940C1677C0CF
:1028C0000E94CF1574C0CF70DD2339F08C2F0E9489
:1028D000E015802F0E9400136AC0802F0E9407130A
:1028E0008C2F0E94EB1563C0023F01F128F4003FDA
:1028F00041F0013FA1F03FC0033FF9F0043F39F13F
:102900003AC0DD2341F0153008F04DC08C2F8F7197
:102910000E94F71548C0163008F045C0F7CFDD23F8
:1029200039F08C2F8F710E94E0153DC0DD23C9F373
:102930008C2F8F710E94EB1536C0DD2329F08C2F70
:102940008F710E94D8152FC00E94D5152CC0DD2391
:1029500049F0CF718C2F0E94E01563E08C2F0E940C
:10296000811A21C081E00E949C1A1230E0F082E0BE
:102970000E949C1A18C0DD2331F0112391F2802FA0
:102980000E94561210C0112399F2093349F49FEFA7
:10299000E3EFF1E09150E040F040E1F700C00000CB
:1029A000802F0E94AC1288EF8C0D843020F40E949E
:1029B0004B280E94D111DD20C9F00E94DB1980FD57
:1029C00015C0F70112820E94D5190E94E015C701B7
:1029D0000E9417150E94D519DF91CF911F910F9179
:1029E000FF90EF90DF90CF900C94EB15DF91CF919B
:1029F0001F910F91FF90EF90DF90CF9008950F936C
:102A00001F93CF93DF93EC01688179818A810E94C3
:102A1000A3168C010E9411160E94B015B801CE01B8
:102A20000E940E13DF91CF911F910F910895CF93C4
:102A3000DF93EC01988189812B813C81232B31F03C
:102A40008F3F31F481E09F3F19F403C081E001C062
:102A500080E080FD19C0CE010E949E1081110CC043
:102A60000E94DF19882381F08A81882369F082E03F
:102A7000DF91CF910C949C1ACE010E94FF14CE01DD
:102A8000DF91CF910C945410DF91CF91089580E0A5
:102A900090E00E94702880E090E00E9486280E94CA
:102AA000271A0E942A1A0E944C1A0E94BC210C94D8
:102AB0008B2080910601909107010E94E2280C94DE
:102AC00047150E94171A0C945915E92FE295EF70DB
:102AD0004E2F50E0FA013297EE30F105B0F4EE5986
:102AE000FF4F0C949532803F91F018F4883E68F4C3
:102AF0000EC0843F51F40BC0883E48F0813F29F45A
:102B000006C093FB882780F9089580E0089581E04E
:102B10000895FC01808191810E9498160E9465159C
:102B20000895CF93DF9300D000D01F92CDB7DEB7CA
:102B30000F900F900F900F900F90DF91CF9108950D
:102B4000CF93DF9300D000D000D0CDB7DEB726966C
:102B50000FB6F894DEBF0FBECDBFDF91CF910895C1
:102B6000089508950C94B1150C94B2150E94B415F3
:102B70008093AE010C9447150C94B6159091AE015C
:102B8000892B0C94B6159091AE0189230C94B6153F
:102B90009091AE0189270C94B6150C94B1150E9442
:102BA000CD158093AD010C94471580E00C94CF15A2
:102BB00091E001C0990F8A95EAF7892F0C94CF15FF
:102BC00021E030E001C0220F8A95EAF78091AD0143
:102BD000822B0C94CF1521E030E001C0220F8A95A2
:102BE000EAF720958091AD0182230C94CF1521E066
:102BF00030E001C0220F8A95EAF78091AD0182276B
:102C00000C94CF159091AD01892B0C94CF15909118
:102C1000AD0189230C94CF159091AD0189270C94B7
:102C2000CF150895292F220F920F990F890FE82FA2
:102C3000E695E695E695877051E001C0550F8A95B7
:102C4000EAF783E0E89FF0011124E655FE4F20E00B
:102C500030E070E04081CB01022E02C0969587954E
:102C60000A94E2F7817081958427852384278193D4
:102C70002F5F3F4F2330310569F70895292F220F29
:102C8000920F990F890F682F669566956695982F14
:102C9000977083E0689FB001112440E050E080E02D
:102CA000FB01E40FF51FE655FE4F208130E0092EB1
:102CB00002C0369527950A94E2F721703327042E37
:102CC00001C0220F0A94EAF7822B4F5F5F4F433017
:102CD000510531F70895CF92DF92FF920F931F9322
:102CE000CF93DF936C010091AD018091AE01082B71
:102CF000C7E0D0E010E0C8010C2E02C09595879582
:102D00000A94E2F780FD04C02197A8F7F12C07C0D0
:102D1000FC2EB6018C2F0E943C1D0197A9F38F2D2C
:102D2000DF91CF911F910F91FF90DF90CF90089589
:102D3000CF93DF93EC010E946B16BE010E943C1DF5
:102D4000DF91CF9108951F93CF93DF93EB01909183
:102D5000A901992321F0CB010E94981613C0882362
:102D600049F0CB010E946B16182F682FCE010E94EC
:102D7000121604C0CB010E943E16182FBE01812FEF
:102D80000E943C1DDF91CF911F9108951F93CF9317
:102D9000DF93C091AF0116E08091B001C81799F0A0
:102DA000D0E01C9FF0011D9FF00D1124EF54FE4F49
:102DB0004081518162817381848195810E94A01537
:102DC0002196C770E9CFDF91CF911F91089540916F
:102DD000E1015091E2016091E3017091E401809181
:102DE000E5019091E6010C94A0150F931F93CF93EA
:102DF000DF938091E60182958F7009F05DC080912C
:102E0000E301882309F458C08091AF011091B0010B
:102E10006091E1017091E201C091E401D091E5017E
:102E200091E06F3F09F090E0292F06E0811709F447
:102E300043C0209721F07F3F21F030E003C031E014
:102E400001C0322F90E030FD34C0089FF001099F8F
:102E5000F00D1124DF01AF54BE4F11963C91119734
:102E6000371327C03C91361324C012963C91129719
:102E700031111FC013964D915C9114974C1B5D0B43
:102E8000483C5105B0F48091E6018F7080618093D9
:102E9000E601EA54FE4F80818F708061808381EE6D
:102EA00091E00E941715DF91CF911F910F910C9423
:102EB000C61601968770BACFDF91CF911F910F91FF
:102EC00008959F92AF92BF92CF92DF92EF92FF92BE
:102ED0000F931F93CF93DF93CDB7DEB761970FB6F4
:102EE000F894DEBF0FBECDBF8C0185E0F801DE0196
:102EF0001D9601900D928A95E1F7F801E28090917C
:102F0000E1016091E2012091E4013091E501211598
:102F1000310531F06F3F31F481E09F3F19F403C078
:102F200081E001C080E0F82FF1709F2E80FD3FC14D
:102F3000F80140815181A380B48081EEC82E81E0E8
:102F4000D82EF090E301F501E21BF30BFF2009F40A
:102F5000D9C08091E601E83CF10508F095C0282F22
:102F6000207F09F052C0561313C0491311C0FE2C24
:102F7000E1100EC08F7080618093E6010E94E71619
:102F8000C6010E9417158091E601F80185834CC1A6
:102F9000AB2831F05F3F31F481E04F3F19F403C0BB
:102FA00081E001C080E080FD03C081E08E2502C089
:102FB00080E090E0F82FF170FF2E80FF1CC0809120
:102FC000AF012091B00136E0821709F40BC190E007
:102FD000389FF001399FF00D1124EF54FE4F6181AD
:102FE000561306C06081461303C06281E61203C017
:102FF00001968770E9CFFE2CEE2009F415C180916F
:10300000E60181608093E60154C0561306C049135F
:1030100004C0E11002C0F80199C0C8010E948915DE
:10302000882361F1EE2051F12091E601822F8295F3
:103030008F7090E0029774F08091E1019091E2012D
:1030400098878F831986BB86AA862C87CE01079620
:103050000E94171586E0F801A1EEB1E001900D92F3
:103060008A95E1F70E94F5160E94E7160AC05617E6
:1030700011F1C8010E94891581112CC0C8010E945C
:103080001715FF24F394D0C0282F207F81F77A2DC5
:10309000B98AA88A6E2D89890E94911581EE91E0E6
:1030A0000E94171586E0F60111928A95E9F70E94B1
:1030B000E716F12CB9C04913DCCFE110DACFF801E3
:1030C0008583C8010E94171586E0F60111928A9542
:1030D000E9F7AAC0EE2091F22091E601822F8295B5
:1030E0008F7090E002970CF4B5CF8091E101909140
:1030F000E2019A8389831B82BD82AC822E83CE013A
:103100000196A6CFE83CF10508F044C0FE2CEE2065
:1031100009F4B4CF561330C049132EC02091E601F4
:1031200020FD21C0822F82958F70482F50E04115DD
:103130005105C9F0F80125834F30510541F08F5FEB
:10314000982F9295907F822F8F70892B8583C8014D
:103150000E94171586E0F801A1EEB1E001900D92F2
:103160008A95E1F73CC086E0F801A1EEB1E001905C
:103170000D928A95E1F758C0C8010E948915811106
:1031800069CF8091E60181608093E601C8010E94C9
:1031900017154AC07A2DB98AA88A6E2D89890E948E
:1031A000911586E0F60111928A95E9F718C0EE2094
:1031B00009F464CFC8010E948915F82E882309F408
:1031C0005DCF86E0F801A1EEB1E001900D928A9505
:1031D000E1F781EE91E00E9424120E94F5160E9410
:1031E000E71622C04D875E878D859E850E949816C2
:1031F000292F22952F70223028F49F7039F08111E9
:1032000005C00BC0243028F49F7049F4805E8830DC
:1032100020F0C8010E9417159F2CF92C05C0F80159
:103220009581907F99F7F9CF8F2D61960FB6F8941D
:10323000DEBF0FBECDBFDF91CF911F910F91FF90E9
:10324000EF90DF90CF90BF90AF909F9008951F9325
:10325000CF93DF93CDB7DEB72C970FB6F894DEBFD0
:103260000FBECDBF4F83588769877A878B879C872E
:10327000CE0107960E9461178823D1F09F8188852F
:103280002A853B85232B31F08F3F31F481E09F3F2E
:1032900019F403C081E001C080E080FD47C04F8188
:1032A000588569857A858B859C850E94A0153EC0CE
:1032B00086E0FE013796DE01119601900D928A9507
:1032C000E1F7FF81E8856A857B856115710531F03D
:1032D000EF3F31F481E0FF3F19F403C081E001C00A
:1032E00080E080FD23C02091B00130E0C90101964B
:1032F000877099274091AF0150E084179507F1F14D
:10330000F983EA837D836C8396E0929FD001939F3B
:10331000B00D1124AF54BE4FFE01319601900D92B5
:103320009A95E1F78093B0010E94C61616E080914D
:10333000AF019091B001891771F1189FC00111245C
:103340008F549E4F0E946117882329F1E091AF01AD
:103350001E9FF0011124EF54FE4F40815181628184
:103360007381848195810E94A0158091AF0190E0C6
:103370000196877099278093AF01D9CF0E9461157C
:103380001092B0011092AF01E1EEF1E086E0DF01B2
:103390001D928A95E9F72C960FB6F894DEBF0FBE02
:1033A000CDBFDF91CF911F9108958091E701859561
:1033B0008595859508958091E7018770089590918E
:1033C000E701977081E009F480E00895909151033E
:1033D00092FB222720F9281751F080FB92F9909355
:1033E000510380915003909151030C94E31A089576
:1033F0008091510382FB882780F991E089270C9402
:10340000E61981E00C94E61980E00C94E6198091AD
:10341000F30108959091F301892B8093F3010895AE
:1034200080959091F30189238093F3010895109280
:10343000F30108959091F201892B8093F201089590
:1034400080959091F20189238093F2010895109262
:10345000F20108951092F10108958091E801089514
:1034600008950C94301A0C94311A9091510392FDE6
:1034700008C09091E801981721F08093E8010C941E
:10348000331A08958091E801882329F01092E80109
:1034900080E00C94331A0895E0910601F091070141
:1034A0008091F3018083E0910601F0910701908102
:1034B0008091F201892B8083E0910601F091070150
:1034C00090818091F101892B80838091E80188238C
:1034D00081F0E0910601F09107019081892B8083B2
:1034E00080910601909107010E949C2881110E9401
:1034F000421A80910601909107010C9457280C9470
:10350000301A9091510392FD10C098E0899F90016C
:103510001124262B2093E7010E94E0158091E701FA
:103520008595859585950C947F1A0C94E0151092DD
:10353000E70180E00C947F1A2091E70180958223B7
:103540008093E701982F977041F430E0482F082EC0
:10355000000C550B2417350721F49091510392FF6D
:1035600007C08595859585950E94EB150C94971A53
:1035700008956FEF7FEF80E090E00C94D43280E00C
:1035800090E00E94B032893E9E4F11F40C94832249
:1035900080E0089582E090E00C94A23283E090E015
:1035A0000C94A232CF9384E090E00E94A232C82F04
:1035B00082E290E00E94A2322C2F30E0A901582B29
:1035C000CA01CF910895CF93C92F682F84E090E06E
:1035D0000E94B6326C2F82E290E0CF910C94B6320A
:1035E0008FE090E00C94AA32AB01BC018FE090E038
:1035F0000C94C832AB01BC0183E190E00C94C8325A
:1036000060E070E0CB010C94FA1A69EE7EEF80E086
:1036100090E00E94D43260E082E090E00E94B632F6
:1036200060E083E090E00E94B6321092AE0160E06C
:1036300084E090E00E94B63260E082E290E00E9476
:10364000B63260E085E090E00E94B63260E086E04D
:1036500090E00E94B6326FEF87E090E00E94B632B1
:1036600040E050E0BA0188E090E00E94C83260E09B
:103670008DE090E00E94B63240E050E0BA0188E16F
:1036800090E00E94C83260E087E190E00E94B6328C
:1036900040E050E0BA018CE190E00E94C83260E066
:1036A00070E080E290E00E94D43240E050E0BA0145
:1036B00088E190E00E94C83280E00E949C220E9433
:1036C000C8220C94E30F0C94051B682F8EE090E049
:1036D0000C94B6320E9478296093FA017093FB0132
:1036E0008093FC019093FD016093F6017093F701C4
:1036F0008093F8019093F901089585B7806885BF9C
:1037000085B7806885BF089581E008950C94841B77
:1037100008950C94881B0C94881B0C94881B0C94A3
:10372000881B0E947D1B88E19EE10E94DD290E948A
:103730008F1B0C94600F0E94891B0C94881B0E94A5
:1037400063290E94D7220E94C41E0E94AB0F0C94D2
:103750000210EF92FF920F931F93CF93DF93CDB799
:10376000DEB72A970FB6F894DEBF0FBECDBF0E941A
:10377000CF1E81110E946A1B80E00E944C1EF82E11
:10378000E090F501E82689F48FEF89838A831B8214
:103790000E946C298160782F9D838C8349815A8196
:1037A0006B818D810E94DA112CC08091FE0181FD18
:1037B0000E94521E00E011E08E2D8123E9F00E944C
:1037C000861B882399F00E831F82F12281E009F481
:1037D00080E088870E946C298160782F9A8789878A
:1037E0004E815F8168858A850E94DA118091F5019A
:1037F00018271093F50105C00F5F110F0630E1F691
:10380000C3CF0E94A9200E94AF0F0E944B28909125
:10381000F401891791F00E944B288093F4012A96B5
:103820000FB6F894DEBF0FBECDBFDF91CF911F91D1
:103830000F91FF90EF900C94D1112A960FB6F89447
:10384000DEBF0FBECDBFDF91CF911F910F91FF90D3
:10385000EF900895CF93DF930E94411DEC018115F5
:1038600021E5920708F045C0811530E5930708F07F
:1038700094C0883E910528F5803E910508F0F8C077
:10388000883A910570F4853A910508F07CC0813042
:10389000910509F475C008F4E8C0049708F0E8C081
:1038A000E4C08F3B910508F0E0C0C85AD0E0CC0FCF
:1038B000DD1FC85ADE4F0990D881C02DCE01946417
:1038C000D8C0811540E2940758F4811551E095075E
:1038D00008F0CEC0803F910508F4C7C09065C9C00C
:1038E000C11580E4D80708F4C0C0DF70CE01906A2B
:1038F000C0C0811525E59207A8F4811534E593072A
:1039000008F095C0811543E5940708F07BC0811548
:1039100052E5950708F061C0D82FCC27CE01816F02
:10392000906AA7C0C11589E5D807A0F4C11528E59C
:10393000D20708F082C0C11536E5D30708F095C05C
:103940008C2F0E94D51D8F7190E0D82FCC27CE01EF
:1039500090628FC0C1154AE5D40708F474C0CE0147
:1039600090568115904208F080C08D2F8F710E9473
:10397000D51DDD27D0628F71AE01582BCA0179C0E9
:1039800081E090E076C0C55AD0E0CA57DE4F88810A
:10399000C82FD0E0CE0190646CC074E096958795F6
:1039A0007A95E1F7282F23703C2F337081E090E067
:1039B00002C0880F991F3A95E2F79C68AC01522B20
:1039C0009A019C2F9F709695969550E2959FE001E5
:1039D0001124C9018C2B9D2B4CC08370992721E0A9
:1039E00030E002C0220F331F8A95E2F79C2F969594
:1039F000969580E2989FE0011124C22BD32BCE0133
:103A00009C6837C08370992721E030E002C0220F04
:103A1000331F8A95E2F79C2F9695969540E2949FE6
:103A2000E0011124C22BD32BCE019A6822C0D82FDB
:103A3000CC27CE01846F906A1CC0DC2FCC27CE012E
:103A4000806F906A16C08C2F8F700E94D51D94E0F5
:103A5000D695C7959A95E1F7CF70D0E0DC2FCC27AB
:103A6000D0699E01282BC90104C080E090E001C00C
:103A7000CE01DF91CF9108950E9467240E942A1CF5
:103A800008958238910569F1B0F48133910509F404
:103A90006DC048F48932910509F463C08A329105FA
:103AA00009F469C008958533910509F455C0893337
:103AB0009105B9F00895833E910569F138F4803E8F
:103AC0009105B1F0823E910509F10895863E910578
:103AD000A9F1873E9105B9F1843E910509F064C0D2
:103AE00023C02091500320FD4FC021FD4DC00895FB
:103AF0008091500380FD44C08091510380FF44C0F9
:103B00008091500384FD42C083EE4DC080915003EC
:103B100082FF38C0F5CF8091500382FD33C0809181
:103B2000510380FD31C0ECCF8091510381FF32C041
:103B30008091500384FD2AC087EE35C080915003E8
:103B400083FF26C0F5CF8091500383FD21C0809173
:103B5000510381FD1FC0ECCF8091500385FD1CC037
:103B60001DC08091500385FD19C016C0809150037F
:103B700086FD16C017C08091500386FD13C010C08B
:103B800089E311C082EE0FC080EE0DC080E00BC053
:103B900086EE09C084EE07C089E205C085E303C054
:103BA0008AE201C081E390E008959091500392FF72
:103BB0000DC0282F2871283019F4877F846006C033
:103BC000282F2471243011F48B7F886093FF0DC05F
:103BD000282F2871283119F4877E846106C0282F88
:103BE0002471243111F48B7E88612091510320FFD0
:103BF0000DC0382F3871383019F4877F816006C0C6
:103C0000382F3171313011F48E7F886021FF0DC063
:103C1000282F2871283119F4877E816106C0282F4A
:103C20002171213111F48E7E886194FD877E089583
:103C300080E008950C94B91A0E94CF1E8FE19EE493
:103C40000197F1F700C000000E94CF1E80E00E94A3
:103C50004C1E80FF04C00E941A1E0C94B9290895BE
:103C60000C941C1E0E94BF1A811102C00E94631B8B
:103C70000E94CA1A8093FE010E94D21A90935103A7
:103C8000809350030E94301E0E94CE1A0E94BC15E1
:103C90008091AD010C94CD15E82FF0E0ED5AFC4F6A
:103CA00080810895089508950C94531E0C94541E19
:103CB0000C94531ECF93DF93A9E8B1E06FE871E055
:103CC00041E050E08D918F3F31F46A177B07D1F7C7
:103CD000DF91CF910895E82FE295EF70F0E021A1F8
:103CE0008F70EA0102C0CC0FDD1F8A95E2F7CE018A
:103CF0009C2F9095922391A392A1892B82A3E5CF2B
:103D0000EF92FF920F931F93CF93DF93EC01E62E78
:103D1000F12C86E0689FB001112420E030E0A0E0A3
:103D200001E010E0C901860F971F87579E4FFC01E5
:103D300090819F3FC9F0492F42954F7050E0FA01A2
:103D400040A150E09F7002C0559547959A95E2F7C3
:103D500040FD07C0C801022E01C0880F0A94EAF78F
:103D600002C080E090E0A82B2F5F3F4F2630310546
:103D7000C9F6F701EC0FFD1FA083DF91CF911F91D2
:103D80000F91FF90EF9008950E945A1E10925203D7
:103D90001092530381E00E94F51E0C9486101F932D
:103DA000CF93DF931F92CDB7DEB7198260E0CE01CB
:103DB00001960E94801E90915203898111E0981310
:103DC00001C010E0981380935203212F41E063E576
:103DD00073E082E593E00E94F61E0E948C10812F12
:103DE0000F90DF91CF911F9108950895FF920F9347
:103DF0001F93CF93DF938C01F62ED72FC42F22234E
:103E000049F081E0809301020E946C2990930002A6
:103E10008093FF01809101028823C1F08091FF010E
:103E2000909100020E948429059780F0EF2DFD2FCC
:103E3000D8014C2F50E0CD01801B910B84179507C2
:103E40001CF48D918193F7CF10920102DF91CF91F5
:103E50001F910F91FF9008950E94E9280E94712BF5
:103E60000E948A2B0E949C2B0E949B1BFBCF80915F
:103E7000080280FF0BC060910D0185E0689FB001D2
:103E8000112475956795759567952BC081FF09C0BD
:103E900060910D0185E0689FB001112475956795CB
:103EA00020C082FF07C060910D0185E0689FB001CE
:103EB000112417C0909107029923D1F060910C0151
:103EC000961788F720910D0185E0289F9001112415
:103ED000929FA001939F500D112470E0CA010E948F
:103EE00081326038710540F46115710519F406C01E
:103EF00065E070E0862F08958FE7089581E00895CA
:103F00008091080280FF08C06091090170E07595FA
:103F100067957595679521C081FF06C0609109017D
:103F200070E07595679519C082FF04C06091090122
:103F300070E010C090910602992399F060910801F9
:103F40009617A0F780910901899FC001112470E0A4
:103F50000E9481326038710540F46115710519F4D1
:103F600006C061E070E0862F08958FE7089581E034
:103F70000895803F21F40E94371F819504C0813F3E
:103F800029F40E94371F80930C020895823F21F488
:103F90000E94371F819504C0833F29F40E94371F78
:103FA00080930B020895893F19F40E94801F05C079
:103FB0008A3F31F40E94801F819580930D020895FD
:103FC0008B3F21F40E94801F819504C08C3F29F40F
:103FD0000E94801F80930E0208959CE0980F9530F8
:103FE00078F421E030E0A90102C0440F551F9A95F2
:103FF000E2F7CA0190910A02892B80930A02089580
:104000008D3F21F48091080281600BC08E3F21F426
:1040100080910802826005C08F3F29F480910802D8
:104020008460809308020895803F39F490910C02D7
:1040300097FF35C010920C0259C0813F29F490912E
:104040000C021916BCF32BC090910B02823F29F48D
:1040500097FF25C010920B0249C0833F19F419162F
:10406000CCF31DC090910D02893F29F41916BCF4C0
:1040700010920D023BC08A3F19F497FF10C0F8CF91
:104080008B3F39F490910E0297FF09C010920E02F7
:104090002DC08C3F21F490910E021916BCF39CE0C8
:1040A000980F953080F421E030E0A90102C0440F60
:1040B000551F9A95E2F7CA01809590910A028923CB
:1040C00080930A0213C08D3F21F4809108028E7FF5
:1040D0000BC08E3F21F4809108028D7F05C08F3F79
:1040E00029F4809108028B7F8093080280910B0253
:1040F000811106C080910C02811102C0109207024A
:1041000080910D02811106C080910E02811102C0C2
:104110001092060208950E946C2920910B02211131
:1041200004C020910C02222321F090930502809379
:10413000040220910D02211104C020910E022223BD
:1041400021F0909303028093020289E092E00C94A4
:104150006228EF92FF920F931F93CF93DF9300D0CB
:1041600000D000D0CDB7DEB786E0E9E0F2E0DE01B6
:10417000119601900D928A95E1F7E0900B02F09074
:104180000C0200910D0210910E0210920B0210927F
:104190000C0210920D0210920E02E11003C0FF20DB
:1041A00009F45DC080910402909105020E94842967
:1041B000AC0190910702992339F020910E0130E073
:1041C0002417350758F04BC020910F018AE0289F33
:1041D000900111242417350718F041C09F3F19F0B2
:1041E0009F5F90930702EE2061F00E94371F1E141C
:1041F00014F09FEF01C091E0989F902D11249093AF
:104200000B02FF2061F00E94371F1F1414F09FEF74
:1042100001C091E0989F902D112490930C02309151
:104220000B023323E1F020910C022223C1F045EB75
:104230003403C0011124992319F090930B0203C099
:1042400081E080930B0235EB2303C00111249923F5
:1042500019F090930C0203C081E080930C020111CD
:1042600003C0112309F45DC0809102029091030202
:104270000E948429AC0190910602992339F0209183
:104280000A0130E02417350758F04BC020910B018C
:104290008AE0289F900111242417350718F041C0A7
:1042A0009F3F19F09F5F90930602002361F00E94E8
:1042B000801F101614F09FEF01C091E0989F902D81
:1042C000112490930D02112361F00E94801F11169A
:1042D00014F09FEF01C091E0989F902D11249093CE
:1042E0000E0230910D023323E1F020910E022223C1
:1042F000C1F045EB3403C0011124992319F09093C8
:104300000D0203C081E080930D0235EB2303C00151
:104310001124992319F090930E0203C081E0809339
:104320000E0280910B0281110BC080910C02811151
:1043300007C080910D02811103C080910E0281118E
:104340000E948B20EB82FC820D831E8386E0FE019F
:104350003196A9E0B2E001900D928A95E1F7269698
:104360000FB6F894DEBF0FBECDBFDF91CF911F9186
:104370000F91FF90EF900895E9E0F2E086E0DF0111
:104380001D928A95E9F71092070210920602109288
:1043900008020895EF92FF920F931F93CF93DF933C
:1043A000CDB7DEB72C970FB6F894DEBF0FBECDBFEA
:1043B0007C838D839E831A872B873C875F1118C06F
:1043C000662311F0061314C08C81882319F09A8596
:1043D00098130EC08E81882319F09C85981308C00D
:1043E0009D81992339F081E02B85291304C002C0F7
:1043F00081E001C080E081702C960FB6F894DEBF9A
:104400000FBECDBFDF91CF911F910F91FF90EF9025
:104410000895EF92FF920F931F93E0900F02F09098
:10442000100200911102109112022091130230919A
:10443000140240911502509116026091170270917A
:1044400018028091190290911A020E94CA218823B1
:1044500021F085E192E00E946228109217021092EA
:1044600018021092190210921A0286E0E5E1F2E0B9
:10447000AFE0B2E001900D928A95E1F71F910F91A4
:10448000FF90EF900895CF93DF9300D000D000D03D
:10449000CDB7DEB786E0E5E1F2E0DE0111960190EE
:1044A0000D928A95E1F729813A814B815C816D817A
:1044B0007E8180E090E026960FB6F894DEBF0FBEB6
:1044C000CDBFDF91CF910895CF93DF9300D000D07F
:1044D00000D0CDB7DEB749835A836B837C838D834D
:1044E0009E8386E0FE013196A5E1B2E001900D9237
:1044F0008A95E1F726960FB6F894DEBF0FBECDBFC2
:10450000DF91CF91089583E290E00E94A232813240
:1045100081F484E290E00E94A232893051F485E275
:1045200090E00E94A23291E0803309F090E0892F60
:1045300001C080E081700895CF93C82F811102C01F
:104540006FEF01C061E283E290E00E94B632C111D8
:1045500002C06FEF01C069E084E290E00E94B632D1
:10456000C11102C06FEF01C060E385E290E0CF911E
:104570000C94B632089586E290E00E94A232682F31
:1045800070E080E090E0089586E290E00C94B6320E
:1045900080E00E949C2260E070E0CB010E94C42277
:1045A0000E94FB230E94C12481E00C949C220E9463
:1045B000BA220E948322811102C00C94C82208955D
:1045C000CF93FB01C281CC23E9F09C0122513F45EE
:1045D0002031310520F482510E94D1240CC0803159
:1045E000FFE59F0751F481E00E94E01543E062E09F
:1045F00081E00E947D10C0E018C081319F45A9F480
:1046000082E0F2CF8031EFE59E0711F481E004C033
:1046100081319F4549F482E00E94EB1543E062E05E
:1046200081E00E947D1001C0C1E08C2FCF910895E0
:104630002FEFFC01208308951F93CF93DF93EC01AC
:10464000162FE8818E2F90E0FC013197E331F105C0
:1046500008F082C0E059FF4F0C949532198289E02E
:1046600087C08981823041F0833009F47EC0813077
:10467000B1F40E94782902C00E94BB229A838B83E6
:104680007C836D836BC08981823049F46A817B8130
:104690008C819D810E949B320E94C4225FC0612F49
:1046A000CE010E9418235AC04B816A8189810E94E1
:1046B000CD239C838D8352C02C813D8132272327BB
:1046C00032274B816A8189810E94E62347C00E947C
:1046D000FB2344C00E94742423C00E947624998343
:1046E00047C06B8170E089819A81AE014C5F5F4F5A
:1046F0009827892798270E94792430C06B8170E021
:1047000089819A81AE014C5F5F4F9827892798274E
:104710000E949E2423C00E94C12420C00E94BA236C
:1047200089831CC06B8170E089819A81AE014C5FE6
:104730005F4F9827892798270E9423240FC06B81F9
:1047400070E089819A81AE014C5F5F4F982789277D
:1047500098270E94462402C08FEF8883612FCE01E4
:10476000DF91CF911F910C94622A80E00E944C1E31
:104770008A83F4CF88E0089550E0440F551F2CE061
:10478000629F400D511D11249A016CE0869F200DFF
:10479000311D1124C901879608950F931F93CF935C
:1047A000DF930E94BC238C010E94A232C82FD0E06C
:1047B000DC2FCC27C80101960E94A2329E01282B33
:1047C000C901DF91CF911F910F9108950F931F930E
:1047D000CF93DF93122F032F0E94BC23EC01602F95
:1047E0000E94B632612FCE010196DF91CF911F91C9
:1047F0000F910C94B632FF920F931F93CF93DF93D8
:10480000F12C00E010E0C0E0D0E0FE01E00FF11F6D
:10481000EE0FFF1FE85EFE4E259134914C2F60E0B5
:104820008F2D0E94E6232196C630D10571F70A5FCD
:104830001F4FF39488E0F812E6CFDF91CF911F91DC
:104840000F91FF900895EF92FF920F931F93CF93D4
:10485000DF93EA017A01E60EF71E8C01C801879604
:10486000CE15DF0561F00036110520F40E94A2325A
:10487000888301C0188221960F5F1F4FEFCFDF9111
:10488000CF911F910F91FF90EF900895EF92FF92BB
:104890000F931F93CF93DF93EA017A01E60EF71E81
:1048A0008C01C8018796CE15DF0551F00036110541
:1048B00018F468810E94B63221960F5F1F4FF1CF26
:1048C000DF91CF911F910F91FF90EF900895462FA8
:1048D000883038F4711105C0663018F460E00C942B
:1048E000CD2380E090E0089580E1089589E793E08A
:1048F0000895EF92FF920F931F93CF93DF93EA01F6
:104900007A01E60EF71E8C01C80189579F4FCE151C
:10491000DF0569F0093723E0120720F40E94A23274
:10492000888301C0188221960F5F1F4FEDCFDF9162
:10493000CF911F910F91FF90EF900895EF92FF920A
:104940000F931F93CF93DF93EA017A01E60EF71ED0
:104950008C01C80189579F4FCE15DF0559F00937E3
:1049600023E0120718F468810E94B63221960F5F87
:104970001F4FEFCFDF91CF911F910F91FF90EF90DD
:104980000895CF93DF93C7E8D0E060E0CE010E94A6
:10499000B6322196C11584E0D807B9F7DF91CF91DF
:1049A0000895DF92EF92FF920F931F93CF93DF93BF
:1049B00000D000D0CDB7DEB7F82E8FE08F15E8F12C
:1049C0008FEF93E00E94A232811137C007E810E018
:1049D000FF2069F0011584E0180779F1C8010E94F1
:1049E000A232811101C0FA940F5F1F4FF1CF1982DB
:1049F0001A821B821C82DD24D39478018FEFE81A7F
:104A0000F80AC8010E94A23289831A828823A9F079
:104A10009FEF980F933058F48A83D9820E5F1F4F0F
:104A2000C7010E94A2328B83882339F07801CE011E
:104A300001960E94C6118701E0CF0F900F900F9052
:104A40000F90DF91CF911F910F91FF90EF90DF902A
:104A500008950F931F93CF93DF93C42FD22FFC01A0
:104A600082818823C9F040931D020E946C29909393
:104A70001C0280931B0280E28C0F883008F057C024
:104A8000C77081E001C0880FCA95EAF7DF91CF9126
:104A90001F910F910C94001380911D02481330C098
:104AA00080911B0290911C020E948429883C9105F0
:104AB00038F510E21D0FCD17B9F080E28C0F883069
:104AC00040F4C77081E001C0880FCA95EAF70E94E0
:104AD0000713183028F581E09D2F977001C0880FCB
:104AE0009A95EAF70E940013802F0E94F71218305F
:104AF000F0F4D77081E001C0880FDA95EAF70AC0B8
:104B000080E28C0F883098F4C77081E001C0880F74
:104B1000CA95EAF7DF91CF911F910F910C9407137B
:104B2000802FDF91CF911F910F910C94F712DF919D
:104B3000CF911F910F9108950F939C01CB01233FBB
:104B40004CE5340731F188F4283DFCE53F07D9F006
:104B5000293D4CE5340779F1273D3C45A9F506E2AE
:104B600021EE41EE67ED7CE52BC0253FFCE53F07DC
:104B7000E1F0A8F0263F3C4539F507E225EE46EE88
:104B800066EF7CE51DC007E225EE45EE68ED7CE5AD
:104B900017C006E221EE40EE63EF7CE511C007E2AC
:104BA00025EE44EE64EF7CE50BC006E221EE42EE1A
:104BB00065EF7CE505C008E221E045EE69ED7CE5A6
:104BC0000E94292580E008C0FC018281882319F019
:104BD00010921D0201C081E00F910895CF93DF93E1
:104BE000EC01FB018281882309F41FC1C230FCE57E
:104BF000DF0708F41BC1C6319CE5D90738F09E01D8
:104C00002A5F3C452930310508F010C10E94D21AB4
:104C10009093510380935003C031ECE5DE0709F413
:104C2000C3C008F041C0C8308CE5D80709F49AC069
:104C3000F0F4C430ECE5DE0709F487C068F4C23054
:104C40008CE5D80709F477C0C330DC4509F0E3C030
:104C500080915003826076C0C630ECE5DE0709F42F
:104C60006EC008F07BC08091500388606BC0CC3070
:104C70008CE5D80709F485C068F4CA30ECE5DE0796
:104C800009F474C008F079C00E9461158091500346
:104C9000806858C0CE308CE5D80709F476C008F09B
:104CA0007FC0809150038BC0CB3FECE5DE0709F459
:104CB0004FC018F5C3318CE5D80709F47DC078F4EE
:104CC000C131ECE5DE0709F473C0C231DC4509F0FF
:104CD000A2C00E946115809150038F7733C0C53107
:104CE0008CE5D80709F472C008F486C0CA3FDC45D9
:104CF00009F091C0809151033EC0CF3FFCE5DF0732
:104D000009F45FC058F4CD3F9CE5D90709F444C0CD
:104D100008F43FC08091510382602DC0C130FDE591
:104D2000DF0709F475C008F45DC0C230DD4509F045
:104D300072C080E06EC080915003816003C080919A
:104D4000500380618093500366C08091500311C06E
:104D5000809151038260809351035DC08091500324
:104D60008062F0CF809150038064ECCF809150033B
:104D700088608460E7CF8160EECF809150038E7FA2
:104D8000E1CF809150038D7FDDCF80915003877FED
:104D9000D9CF8091510318C0809151038D7FDBCF13
:104DA000809150038F7ECECF809150038F7DCACFEC
:104DB000809150038F7BC6CF80915003877F8B7F7C
:104DC000C1CF809151038D7F8E7FC5CF80915003DD
:104DD00082FB222720F991E0922790FB82F990FB39
:104DE00083F9B0CF80915103982F909591708E7F69
:104DF000892B90FB81F9AFCF0E9461158091500300
:104E000087FB222720F991E0922790FB87F99ACF20
:104E100081E00E94651B80915003909151030E9494
:104E2000E31A0E94611580E001C081E0DF91CF911B
:104E30000895CF93DF9386319C4541F5EB010E94A5
:104E4000071A982F8A812091060130910701882343
:104E500079F09A7A81E009F480E080931E02911142
:104E600002C069E201C065E3C9010E94DE280AC0F0
:104E700080911E02811102C069E201C065E3C9018F
:104E80000E94E0280E944C1A80E001C081E0DF917E
:104E9000CF91089595E890937A00982F907290683A
:104EA00090937B008F7190911001892B80937C00EF
:104EB00080917A00806480937A0080917A0086FDE8
:104EC000FCCF809178002091790090917A009F77B3
:104ED00090937A0090E0922B0895289A219A229A32
:104EE00023982B9880E58CBD0895909111019F3FE8
:104EF00009F072C08F3F09F46FC0611103C01092B6
:104F0000200203C090E290932002423041F04330EF
:104F100051F0413069F490912002946007C0909163
:104F20002002986003C0909120029C609093200220
:104F300041E050E04217530718F4440F551FFACFD1
:104F40009091200240315105F1F050F4423051056A
:104F5000B1F048305105E1F421E020931F0213C065
:104F60004034510591F04038510539F04032510537
:104F700079F421E020931F0208C0936007C091E0FC
:104F800090931F0205C0916001C09260909320022F
:104F90002CB590912002922B9CBD90911F029923D9
:104FA00019F09DB591609DBD80931101E82FE295A8
:104FB000EF70F0E031A1282F2F7081E090E001C068
:104FC000880F2A95EAF7932F982B91A392A18095A9
:104FD000892382A381E0089580E00895CF93DF9331
:104FE0008EBD0E946C29EC010DB407FC0AC00E9422
:104FF0006C298C1B9D0B84369105B0F38EEF9FEFCF
:1050000002C08EB590E0DF91CF910895CF93DF93EA
:105010001EBC0E946C29EC010DB407FC0AC00E9462
:105020006C298C1B9D0B84369105B0F38EEF9FEF9E
:1050300002C08EB590E0DF91CF910895809111016B
:105040008F3F19F1E82FE295EF70F0E031A1282FA2
:105050002F7081E090E001C0880F2A95EAF7932F26
:10506000982B91A392A1892B82A38FEF809311019A
:105070008DB58E7F8DBD9CB5809120028095892352
:105080008CBD1092200210921F0208959093260268
:10509000809325020895E0912502F0912602309731
:1050A00021F00190F081E02D099480E00895E091D5
:1050B0002502F0912602309721F00280F381E02D45
:1050C00009940895E0912502F0912602309739F075
:1050D00022E0DC012C930480F581E02D09940895F1
:1050E00020912302309124022817390771F0909300
:1050F000240280932302E0912502F091260230974A
:1051000021F00680F781E02D099408952091210275
:10511000309122022817390771F090932202809370
:105120002102E0912502F0912602309721F00084BF
:10513000F185E02D09940895FC01329697E080E016
:10514000915029F021912223D9F38F5FF9CF08954F
:10515000662349F0FC01329608962191621729F0E6
:10516000E817F907D1F780E0089581E008959C01E0
:10517000FC0132969FEF80E04191461789F09F3FF6
:1051800019F4411101C0982F8F5F8630A9F79F3F16
:1051900039F0F901E90FF11D97FDFA956283089541
:1051A00008959C012A5F3F4FFC014281461301C0D4
:1051B0001282019682179307B9F708950C94B728C5
:1051C0000C94D128029626E0FC0111922A95E9F769
:1051D0000895089508950C94EA280C94EA280E94F2
:1051E000ED280E94CF1E0E94EB2880E00E944C1EFA
:1051F00091E0811101C090E0892F08950C94EA2874
:105200000C94FE2880915C03843049F10E940029AF
:1052100080E00E94D1111092270220E488E190E002
:105220000FB6F894A895809360000FBE209360009D
:1052300083B7817F846083BF83B7816083BF7894A5
:10524000889583B78E7F83BF0FB6F894A895809119
:105250006000886180936000109260000FBE089526
:105260000C94EA280E9461150E944B280E94D111DB
:105270000C9430291F920F920FB60F9211248F9326
:105280009F93AF93BF9380912702811113C08091A8
:10529000540390915503A0915603B0915703419642
:1052A000A11DB11D8093540390935503A093560301
:1052B000B0935703BF91AF919F918F910F900FBE05
:1052C0000F901F90189582E084BD93E095BD9DE7F7
:1052D00097BD80936E0008952FB7F8948091540382
:1052E00090915503A0915603B09157032FBF089595
:1052F0002FB7F89460915403709155038091560331
:10530000909157032FBF08959C014FB7F894809157
:10531000540390915503A0915603B09157034FBF8A
:10532000821B930B089578941F920F920FB60F92E1
:1053300011248F939F93AF93BF93809154039091C7
:105340005503A0915603B09157030196A11DB11DBD
:105350008093540390935503A0935603B09357033F
:10536000BF91AF919F918F910F900FBE0F901F90A3
:10537000189581E08093E00080E28093D80010923D
:10538000C9008FE097E20197F1F700C0000087E0C5
:1053900090EBDC018093650390936603A093670311
:1053A000B09368039CE088E10FB6F894A8958093C9
:1053B00060000FBE90936000FFCF90939F01809399
:1053C0009E01089580913302089590915C0394307A
:1053D00029F58093280270932A0260932902909302
:1053E000E9008FEF9091E800815095FD06C09AE6A4
:1053F0009A95F1F700C08111F5CF8091E80085FF03
:105400000DC040E050E063E070E088E292E00E946E
:105410005D2C8091E8008E778093E8000895BC01B0
:1054200084E00C94E529BC0183E00C94E52924E098
:105430002093E9002FEF3091E800215035FD06C0A0
:105440003AE63A95F1F700C02111F5CF2091E80036
:1054500025FF0BC040E050E066E070E00E945D2C4C
:105460008091E8008E778093E8000895CF93DF93D2
:1054700021E02093E9002FEF3091E800215035FD25
:1054800006C03AE63A95F1F700C02111F5CF209118
:10549000E80025FF14C0EC0140E050E068E070E057
:1054A0000E945D2C8091E8008E778093E80088E070
:1054B000FE01ABE2B2E001900D928A95E1F7DF9137
:1054C000CF910895CF93603219F520915C03243079
:1054D000F9F4C091E900CF703091EC00232F2170D6
:1054E00030FD20E8C22B22E02093E9002091E80063
:1054F00020FF0BC040E050E060E270E00E945D2CB5
:105500008091E8008E778093E800CF70C093E90027
:10551000CF91089580915B03811109C00E94392EBB
:105520000E94962E8091E20084608093E2000895AC
:1055300010925B03089508950895089542E061EC88
:1055400081E00E94B22D42E261EC84E00E94B22D23
:1055500042E261EC82E00E94B22D42E260EC83E024
:105560000C94B22D80915E03833009F462C030F454
:10557000813071F0823009F49BC008958A3009F4BB
:1055800087C08B3009F46DC0893009F0A9C020C0F4
:1055900080915D03813A09F0A3C08091E800877F84
:1055A0008093E8008091610390916203892B21F43C
:1055B00068E08BE292E003C060E080E090E070E0A1
:1055C0000E94F32C8091E8008B778093E800089587
:1055D00080915D03813209F083C0809161039091D5
:1055E0006203009719F0029709F07AC08091E800F1
:1055F000877F8093E8008091E80082FD05C080915C
:105600005C038111F8CF6CC02091F3008091F2000F
:1056100090E0922B029729F48091F1008B7F8130EA
:1056200021F48091F100809333028091E8008B7720
:1056300053C080915D03813A09F052C080916103AB
:1056400090916203892B09F04BC08091E800877F1D
:105650008093E8008091E80080FFFCCF80911C01DE
:1056600036C080915D038132D9F5809161039091BC
:105670006203892BA9F58091E800877F8093E80079
:105680000E94E72D80915F0380931C010C946115AB
:1056900080915D03813221F58091E800877F8093BE
:1056A000E8000E94E72D8091600380933402089502
:1056B00080915D03813AA1F48091E800877F809317
:1056C000E8008091E80080FFFCCF80913402809355
:1056D000F1008091E8008E778093E8000C94E72D2C
:1056E000089584B7877F84BF0FB6F894A8958091FA
:1056F0006000886180936000109260000FBE90E0AF
:1057000080E80FB6F89480936100909361000FBE1B
:105710000C94911B0E94392E0E94962EE2EEF0E02E
:1057200080818460808378940E9428310E949F1B2E
:1057300082E191E00C944628CF93DF93CDB7DEB79A
:10574000A0970FB6F894DEBF0FBECDBF80915C036B
:105750008530A9F480915C03853079F40E94022998
:1057600080915A038823B1F30E94EF28882391F394
:105770000E94482C0E946115EDCF0E9432290E94A0
:10578000A91B80915C03843011F583E08093E900CC
:105790008091E80082FF1BC08091E80085FF0AC06D
:1057A00040E050E060E270E0CE0101960E94A82C3B
:1057B00091E001C090E08091E8008B778093E80051
:1057C000992329F060E2CE0101960E941C23A09645
:1057D0000FB6F894DEBF0FBECDBFDF91CF91089515
:1057E0000C94F22B292F332723303105C9F060F4B4
:1057F0002130310581F02230310509F041C08BE5BF
:1058000090E026E732E140C021323105E1F022325A
:10581000310531F135C082E190E021ED32E134C053
:1058200099278130910549F028F0029749F5E8E27F
:10583000F2E105C0E2E7F2E102C0EAE4F2E18491BC
:1058400090E09F0121C063307105D0F4660F771F8F
:10585000FB01E856FE4F2081318189E090E014C0C1
:105860006330710568F4FB01EE0FFF1FEE56FE4F2B
:1058700020813181FB01E157FE4F808190E004C01F
:1058800080E090E020E030E0FA0131832083089549
:1058900019BC82E089BD09B400FEFDCF8091D8001B
:1058A0008F7D8093D8008091E00082608093E0003B
:1058B0008091E00081FDFCCF0895CF92DF92EF92BE
:1058C000FF920F931F93CF93DF93EC018B017A012B
:1058D0000E94062E811133C0E114F10439F0F70162
:1058E00080819181081B190BC80FD91FC12CD12CA5
:1058F0000115110519F18091E80085FD16C0809110
:10590000E8008E778093E800E114F10449F0F70194
:1059100080819181C80ED91ED182C08285E00FC0DE
:105920000E94062E882321F30AC089918093F100FA
:1059300001501109FFEFCF1ADF0ADACF80E0DF91C3
:10594000CF911F910F91FF90EF90DF90CF9008952E
:10595000CF92DF92EF92FF920F931F93CF93DF933B
:10596000EC018B017A010E94062E811133C0E114F3
:10597000F10439F0F70180819181081B190BC80FE0
:10598000D91FC12CD12C0115110519F18091E80006
:1059900085FD16C08091E8008B778093E800E114C4
:1059A000F10449F0F70180819181C80ED91ED1829E
:1059B000C08285E00FC00E94062E882321F30AC012
:1059C0008091F100899301501109FFEFCF1ADF0A8E
:1059D000DACF80E0DF91CF911F910F91FF90EF9090
:1059E000DF90CF90089520916303309164032617D0
:1059F000370748F06115710539F42091E8002E77DA
:105A00002093E80001C0B901FC0120E06115710597
:105A100079F180915C038823F1F18530F1F1809177
:105A2000E80083FD3CC08091E80082FD2EC080919B
:105A3000E80080FFEBCF2091F3008091F20090E02E
:105A4000922B6115710551F08830910538F4219140
:105A50002093F100615071090196F3CF21E008977E
:105A600009F020E08091E8008E778093E800CECFA7
:105A70002111CFCF0AC080915C03882361F085306B
:105A800061F08091E80083FD0AC08091E80082FF08
:105A9000F2CF80E0089582E0089583E0089581E0E8
:105AA000089520916303309164032617370748F067
:105AB0006115710539F42091E8002E772093E800F4
:105AC00001C0B901FC0120E06115710591F18091DF
:105AD0005C03882309F440C0853009F43FC08091FD
